:100000000C9434000C943E000C943E000C943E0082
:100010000C943E000C943E000C943E000C943E0068
:100020000C943E000C943E000C943E000C943E0058
:100030000C943E000C943E000C943E000C943E0048
:100040000C943E000C943E000C943E000C943E0038
:100050000C943E000C943E000C943E000C943E0028
:100060000C943E000C943E0011241FBECFEFD8E04C
:10007000DEBFCDBF0E9440000C9461000C940000D4
:10008000509A8FEF87B91092C50089E18093C40020
:1000900088E18093C1008EE08093C20091E080915E
:1000A000C00087FFFCCF8091C600803FC1F788B1B8
:1000B000892788B9E7EDF6ED3197F1F700C0000028
:0600C000EECFF894FFCF23
:00000001FF
